:020000040800F2
:1000000000000220D1030008B1050008B505000872
:10001000CD030008CD030008CD0300080000000058
:10002000000000000000000000000000112900088E
:10003000CD03000800000000A1290008052A0008DF
:10004000CD030008CD030008CD030008B905000862
:10005000CD030008CD03000851050008CD030008BA
:10006000CD030008CD030008CD030008CD03000830
:10007000CD030008CD030008CD030008CD03000820
:10008000CD030008CD030008CD030008CD03000810
:10009000CD030008CD030008CD030008CD03000800
:1000A000CD030008CD030008CD030008CD030008F0
:1000B000CD030008CD030008CD030008CD030008E0
:1000C000CD030008CD030008CD030008CD030008D0
:1000D000CD030008CD03000875050008CD03000816
:1000E000CD030008DD050008CD030008CD0300089E
:1000F000CD030008CD030008CD030008CD030008A0
:10010000CD030008CD030008CD030008CD0300088F
:10011000CD030008CD030008CD030008CD0300087F
:10012000CD030008CD030008CD030008CD0300086F
:10013000CD030008CD030008CD030008CD0300085F
:10014000CD030008CD030008CD030008CD0300084F
:10015000CD030008CD030008CD030008CD0300083F
:10016000CD030008CD030008CD030008CD0300082F
:10017000CD030008CD030008CD030008CD0300081F
:08018000CD030008CD030008C7
:100190002DE9F04701218AB0082000F09FFD0121E0
:1001A000084600F09BFD01214FF4003000F0A4FD53
:1001B000DFF86081554F01214FF480400124002574
:1001C00000F0A8FD4FF0030A02A94FF47043504815
:1001D000029302268DF80C408DF80E508DF80F50CA
:1001E0008DF80DA000F0A4FA042302A94046029362
:1001F0004FF008098DF80E508DF80C608DF80D60E9
:100200008DF80F6000F094FA31460722404600F066
:10021000E7FA0DEB090140468DF80C608DF80E50A1
:100220008DF80D608DF80F60CDF8089000F080FA21
:1002300051460722404600F0D3FA384600F018FB3A
:100240000C234FF4E132384606A9ADF8223006926D
:10025000ADF82450ADF82050ADF81E50ADF81C504C
:1002600000F08CFB2146384600F0EAFB384620219E
:1002700000F016FC2146384600F01EFC22463846A7
:10028000802100F027FC2246384640F2255100F03C
:100290002BFC224638464FF4B07100F025FC262393
:1002A00001A88DF804308DF805408DF806608DF8B2
:1002B000074000F0ABFA0DEB0901404602948DF8BF
:1002C0000C508DF80E508DF80D608DF80F6000F019
:1002D0002FFA2946284600F047FD04A88DF815900E
:1002E00004948DF814508DF8164000F021FC06237C
:1002F00001A88DF805408DF806408DF807408DF86F
:10030000043000F083FA0AB0BDE8F08700440040F2
:10031000000C0240000002400EB42DE9F04183B011
:1003200009AB53F8045B01932978E1B1244F254EC2
:1003300005E0254800F092FB6978013599B125293F
:10034000F7D16B78642B05F1010511D0732BF3D134
:10035000019B1D4819680433019300F08BFB6978F9
:1003600001350029EBD103B0BDE8F04103B070477F
:10037000019BD3F8008004330193B8F1000FDBD068
:100380004346012487FB0312DB1704EB8404D3EB01
:10039000A2034FEA4404F5D1A6FB0434E408CBD011
:1003A000B8FBF4F1A6FB0423CAB2303104FB128877
:1003B000C9B2DC08044800F051FB002CF0D1BBE7C7
:1003C00067666666CDCCCCCC00440040FEE700BF3B
:1003D000684620F007018D4601B5104B1048984241
:1003E00007D2C2431A4422F0030204320D4902F03C
:1003F000F7FC0D480D4B984207D2C2431A4422F035
:1004000003020432002102F0F6FC00F013F900F0C0
:1004100043F8BDE801408546704700BF1800002042
:1004200000000020802E000818000020D02D0120A0
:1004300070B5044602F0EEF9451C2946204602F04C
:10044000FDF901F055FD0F4A1268944206460CD0A2
:100450004FF400510C4800F0BFF933462A460B49CF
:100460000B48BDE87040FFF757BF4FF48051064876
:1004700000F0B2F933462A4606490548BDE8704007
:10048000FFF74ABF802D0120000C0240282E0008F3
:1004900000440040082E000870B5042082B002F02D
:1004A000C7FBFFF775FE00220421052000F054FD74
:1004B00000283DD000220421032000F04DFD00283B
:1004C00036D01C4D0095002301224FF4FA711A48D2
:1004D0001A4C1B4E02F008F9002300951A462060C2
:1004E00042F21071174802F0FFF825683060C5B17C
:1004F000B8B101F0FDFC0024024601212846234644
:10050000009402F053F9104B3568186001F0F0FCCC
:100510002346024600942846012102F047F90B4B7E
:10052000186002F057FC01F03BFB002002B070BDE8
:100530000120FBE7310400084C2E0008802D01202B
:100540008C2D0120582E0008882D0120842D01209B
:1005500008B5012000F034FB00B908BD04484FF491
:10056000804100F039F90120BDE8084000F032BBBD
:10057000000C024010B520210B4800F0D3FA00B95E
:1005800010BD094800F088FAC4B2312C05D02146CC
:100590000548BDE8104000F061BA4FF4004103483F
:1005A00000F01AF9F3E700BF00440040000C0240DD
:1005B000704700BFFEE700BF08B54FF4804000F071
:1005C0001DFB18B14FF4806000F00AFB024B4FF4A2
:1005D00080025A6108BD00BF003C014008B54FF4DD
:1005E000805000F00BFB012819D04FF4005000F0B0
:1005F00005FB012805D04FF40030BDE8084000F0AD
:10060000E9BA32210A4800F029FA4FF4005000F00C
:100610000BFB4FF40030BDE8084000F0DBBA31219D
:10062000034800F01BFA4FF4805000F0FDFADCE7BD
:10063000004400403849394BD1F88820384842F40A
:100640007002C1F888201A68002142F001021A6085
:1006500099601A6822F0847222F480321A6058601D
:100660001A6882B022F480221A60D9600091019148
:100670001A6842F480321A601A4603E0009BB3F510
:10068000A04F09D0136803F400330193009B01339A
:100690000093019B002BF1D0204B1B6813F4003317
:1006A00018BF01230193019B012B05D01A4B4FF07A
:1006B00000629A6002B07047184B1A491A6C1A48C7
:1006C00042F080521A640A6842F440420A609A6812
:1006D0009A609A689A609A6842F480529A60586068
:1006E0001A6842F080721A601A4611680B4B890131
:1006F000FBD50E4A40F2057111609A6822F00302A0
:100700009A609A6842F002029A601A46936803F06F
:100710000C03082BFAD1C9E700ED00E000380240D5
:10072000103000240070004008324004003C0240B9
:100730000022F0B513460126032704E00133102BF5
:1007400002F102022FD00D6806FA03F434EA05051F
:10075000F4D1D0F800E007FA02F5ED430EEA050EF9
:10076000C0F800E091F804E0D0F800C00EFA02FEF4
:100770004EEA0C0EC0F800E091F804E00EF1FF3EE6
:10078000BEF1010F07FA02FC0ED9C46824EA0C047A
:10079000C460CC79C568944001332C43102BC460ED
:1007A00002F10202CFD1F0BDD0F808E005EA0E0553
:1007B000856091F805E085680EFA02FE4EEA0505AF
:1007C0008560456825EA040444608C7945689C404E
:1007D000A4B22C434460D8E7436959404161704753
:1007E00010B4CB0800EB830001F00701046A890014
:1007F0000F238B4024EA03030362036A8A4042EA20
:10080000030101625DF8044B704700BFC3785BB918
:10081000037816485A09203203F01F03012101FA18
:1008200003F340F82230704770B44678837802783A
:100830000E4DB401590124F07F0441EAC6111B0199
:10084000214303F0200302F160420B4302F56142B1
:10085000DBB282F800330378012203F01F015B0949
:100860008A4045F8232070BC704700BF00E100E0DB
:1008700008B53A4B984221D0394B984228D0394B91
:10088000984231D0384B98423AD0384B984243D0B6
:10089000374B98424CD0374B984253D0364B984206
:1008A00000D008BD01214FF0004000F041FA0021C6
:1008B0004FF00040BDE8084000F03ABA0121102096
:1008C00000F044FA00211020BDE8084000F03EBAD4
:1008D00001214FF4003000F02BFA00214FF40030DA
:1008E000BDE8084000F024BA01214FF4802000F058
:1008F0001FFA00214FF48020BDE8084000F018BA2C
:1009000001214FF4002000F013FA00214FF40020E1
:10091000BDE8084000F00CBA01214FF4801000F04F
:1009200007FA00214FF48010BDE8084000F000BA3B
:100930000121202000F00AFA00212020BDE8084013
:1009400000F004BA01214FF0804000F0F1F90021DD
:100950004FF08040BDE8084000F0EAB900100140C7
:100960000044004000480040004C0040005000405F
:100970000014014000780040007C004030B5038A3C
:10098000CA889BB223F440531343038282890B89A4
:10099000044688880D464989034392B20B4322F4EA
:1009A000B05222F00C029BB21343A381A38AAA89FE
:1009B0009BB223F44073134385B0A382684600F0D2
:1009C00041F91D4B9C4228D003F580639C4224D002
:1009D000029AA389A18913F4004F2B6802EB8202CB
:1009E00014BF5B009B0002EB8202B2FBF3F0134AE0
:1009F000A2FB00356D096423090405FB13034FEACC
:100A000005150CD41B013233A2FB0323C3F343139C
:100A10002B439BB2238105B030BD039AD9E7D9009F
:100A20003231A2FB0131C1F3421242EA05039BB20B
:100A3000238105B030BD00BF001001401F85EB5180
:100A4000838929B923F400531B041B0C838170474D
:100A50009BB243F400538381704700BFC1F3080188
:100A6000818003885A0603D400BF03885B06FBD548
:100A7000704700BF0B786BB19BB2838003885A0626
:100A800003D400BF03885B06FBD511F8013F002BA0
:100A9000F2D17047704700BF8088C0F308007047EC
:100AA000038A23F020031B041B0C0382038A9BB2DE
:100AB00019430182704700BF038A29B923F4804398
:100AC0001B041B0C038270479BB243F480430382D8
:100AD000704700BF838A9BB21AB923EA0101818261
:100AE000704719438182704710B401F01F04C1F3AD
:100AF00042110123012903FA04F311D002290CBF8A
:100B00001030143032B9026822EA030303605DF842
:100B1000044B70470268134303605DF8044B704751
:100B20000C30EFE70388194214BF01200020704702
:100B30008379002B2CD010B4204B01681A6822EA6C
:100B400001021A605A68016822EA01025A600279B9
:100B5000016802F1804202F59E321468214311605F
:100B60009A68016822EA01029A60DA68016822EA5A
:100B70000102DA604279102A15D002F1804303F5B0
:100B80009E33026819680A431A605DF8044B704787
:100B90000379016803F1804303F59E331A6822EA62
:100BA00001021A607047996802680A439A600268F5
:100BB000D9680A43DA605DF8044B7047003C014095
:100BC000034B5B69034214BF01200020704700BF44
:100BD000003C0140014B5861704700BF003C0140A0
:100BE000054AD36880B240F0800003F0800363EAD6
:100BF0000003D360704700BF0028004009490A6C19
:100C00008B68C96802F0040202EAD0320340134341
:100C100006D089B211EA101314BF012000207047DA
:100C20001846704700280040054AD368C0F30F10EB
:100C300040F0800003F0800363EA0003D360704754
:100C40000028004010B4214CA36803F00C03042BCF
:100C50001BD0082B1CD01E4B03601C4A1D499468F6
:100C6000C4F303140C5DE34043609468C4F382242E
:100C70000C5D23FA04F4846092685DF8044BC2F3BF
:100C800042328A5CD340C3607047134B0360E4E791
:100C90006368616813F4800F636818BF0E4C01F03D
:100CA0003F020CBF0A49B4FBF2F1C3F3881308BF3B
:100CB000B1FBF2F101FB03F2044B5B68C3F30143A8
:100CC00001335B00B2FBF3F30360C6E70038024078
:100CD0000024F4000400002000127A0029B9054A1B
:100CE000136B23EA000010637047024B1A6B10432A
:100CF000186370470038024029B9054A136C23EA8B
:100D0000000010647047024B1A6C1043186470475F
:100D10000038024029B9054A536C23EA00005064A8
:100D20007047024B5A6C10435864704700380240B9
:100D300029B9054A136A23EA000010627047024B82
:100D40001A6A1043186270470038024029B9054AF0
:100D5000536A23EA000050627047024B5A6A1043FC
:100D6000586270470038024010B401F0FC0303F1F0
:100D7000804303F59C3301F003019C6889000F2236
:100D80008A4024EA02029A609A6888401043986078
:100D90005DF8044B704700BF70B51546026C866B5A
:100DA000044632B905683DBB806801F055FAA5607C
:100DB00029E06DB9406802F013F86168236CA268FD
:100DC0000B449342636019D32368636028461AE09A
:100DD000C06802F005F8236CE26821685B421A449F
:100DE0008A42E26002D2A2681344E360022D07D176
:100DF00046B1013E002006E0104604E0284602E02D
:100E0000002000E030460136A66370BD026C034648
:100E100072B110B40846D9689C681144A142D960E7
:100E200024BF1968D960D9685DF8044B01F0D8BFB8
:100E3000704700BF70B5054601F07CFD95F8454050
:100E400064B2002C16DD6B6AA3B105F1240605E03F
:100E5000013CE3B25CB26BB16B6A5BB1304601F04E
:100E600049F90028F4D0013C01F0E0F9E3B25CB2AA
:100E7000002BF1D1FF2385F8453001F07DFD01F015
:100E800059FD95F8444064B2002C16DD2B69A3B1DE
:100E900005F1100605E0013CE3B25CB26BB12B69D1
:100EA0005BB1304601F026F90028F4D0013C01F096
:100EB000BDF9E3B25CB2002BF1D1FF2385F84430D9
:100EC000BDE8704001F058BD38B5E0B104460D46AC
:100ED00001F030FD226CE36B2168616003FB02F3DB
:100EE0009A1A0A440B440020FF21A063E26084F8B0
:100EF0004410A36084F8451005BB236963B901F071
:100F00003BFD012038BD4FF0500383F31188BFF340
:100F10006F8FBFF34F8FFEE704F1100001F0EAF886
:100F20000028ECD00B4B4FF080521A60BFF34F8F6C
:100F3000BFF36F8F01F020FD012038BD04F11000D8
:100F400000F000FC04F1240000F0FCFB01F014FDB3
:100F5000012038BD04ED00E0F8B540B94FF0500372
:100F600083F31188BFF36F8FBFF34F8FFEE7064601
:100F700001FB00F0503017460D4601F059FE0446C3
:100F800060B100F15003002D08BF0346C66305643D
:100F900003600121FFF798FF84F84C702046F8BDEC
:100FA0002DE9F04F85B00192002800F0078100295B
:100FB00000F03C81022B00F02C8104461E460F46B7
:100FC00001F03AF928B9019B002B40F019819946AC
:100FD00001E04FF0000901F0ADFCA26BE36BDFF81C
:100FE00068A29A424FF000087CD3022E7AD0019D6D
:100FF000002D00F0F980B9F1000F00F0F18001F050
:10100000BBFC00F0D5FE01F095FC94F84430FF2BBA
:1010100008BF84F8448094F84530FF2B08BF84F85B
:10102000458001F0A9FC01A902A801F0B3F800284D
:1010300040F0CD8001F07EFCA26BE36B9A4266D05B
:1010400001F09AFC01F076FC94F845506DB2002D49
:1010500016DD636AA3B104F1240905E0013DEBB29A
:101060005DB26BB1636A5BB1484601F043F800289A
:10107000F4D0013D01F0DAF8EBB25DB2002BF1D112
:10108000FF2384F8453001F077FC01F053FC94F81D
:1010900044506DB2002D16DD2369A3B104F110098F
:1010A00005E0013DEBB25DB26BB123695BB148462F
:1010B00001F020F80028F4D0013D01F0B7F8EBB2C0
:1010C0005DB2002BF1D1FF2384F8443001F054FCD1
:1010D00000F076FE01F02EFCA26BE36B9A424FF01B
:1010E000010982D2324639462046FFF755FE636A2F
:1010F000002B7DD138B1544B4FF080521A60BFF3B2
:101100004F8FBFF36F8F01F037FC012065E004F1D2
:10111000100901F031FC4846019900F037FF01F059
:1011200009FC94F845506DB2002D16DD636AA3B139
:1011300004F1240B05E0013DEBB25DB26BB1636AD3
:101140005BB1584600F0D6FF0028F4D0013D01F015
:101150006DF8EBB25DB2002BF1D1FF2384F845307E
:1011600001F00AFC01F0E6FB94F844506DB2002D4A
:1011700004DC11E0013DEBB25DB26BB123695BB100
:10118000484600F0B7FF0028F4D0013D01F04EF8CA
:10119000EBB25DB2002BF1D1FF2384F8443001F0B3
:1011A000EBFB00F00DFE002894D14FF08053CAF8FD
:1011B0000030BFF34F8FBFF36F8F8BE74FF05003BB
:1011C00083F31188BFF36F8FBFF34F8FFEE7204685
:1011D000FFF730FE00F0F4FD002005B0BDE8F08F11
:1011E00002A800F0CBFF0AE701F0C6FB2846F4E7AF
:1011F00004F1240000F07EFF00287FF47CAF82E73A
:101200004FF0500383F31188BFF36F8FBFF34F8FFD
:10121000FEE7C26B012A3FF4D0AE4FF0500383F3D8
:101220001188BFF36F8FBFF34F8FFEE7026C002A68
:101230003FF4C0AE4FF0500383F31188BFF36F8FBC
:10124000BFF34F8FFEE700BF04ED00E02DE9F84348
:10125000F0B1002942D0022B34D004461F469046FC
:10126000894601F08DFCEFF311864FF0500383F3B4
:101270001188BFF36F8FBFF34F8FA26BE36B9A425E
:101280000FD3022F0DD0002086F31188BDE8F8831C
:101290004FF0500383F31188BFF36F8FBFF34F8F6D
:1012A000FEE794F84550A36B3A4649466DB2204696
:1012B000FFF772FD6B1C1DD06B1C5BB284F84530D0
:1012C0000120E1E7C46B012CC7D04FF0500383F33A
:1012D0001188BFF36F8FBFF34F8FFEE7046C002CB4
:1012E000B9D04FF0500383F31188BFF36F8FBFF372
:1012F0004F8FFEE7636A002BE2D004F1240000F078
:10130000F9FE0028DCD0B8F1000FD9D00120C8F8D0
:101310000000B9E72DE9F04385B00192002800F004
:101320005081002900F05C8104460E4600F084FFE5
:1013300050B9019D4DB14FF0500383F31188BFF3B5
:101340006F8FBFF34F8FFEE7002501F0F3FAD4F85B
:101350003890DFF8C8820027B9F1000F40F086808E
:10136000019B002B00F0368115B902A800F006FFA2
:1013700001F002FB00F01CFD01F0DCFA94F84430AF
:10138000FF2B08BF84F8447094F84530FF2B08BF4A
:1013900084F8457001F0F0FA01A902A800F0FAFE05
:1013A000002840F0BE8001F0C5FAA36B002B6CD181
:1013B00004F1240901F0E0FA4846019900F0E6FD45
:1013C00001F0B8FA94F845506DB2002D04DC11E03C
:1013D000013DEBB25DB26BB1636A5BB1484600F0B0
:1013E00089FE0028F4D0013D00F020FFEBB25DB291
:1013F000002BF1D1FF2384F8453001F0BDFA01F054
:1014000099FA94F844506DB2002D16DD2369A3B10A
:1014100004F1100905E0013DEBB25DB26BB1236947
:101420005BB1484600F066FE0028F4D0013D00F0B4
:10143000FDFEEBB25DB2002BF1D1FF2384F8443006
:1014400001F09AFA00F0BCFC38B94FF08053C8F8AC
:101450000030BFF34F8FBFF36F8F012501F06AFAA1
:10146000D4F83890B9F1000F3FF47AAF31462046F6
:10147000FFF7CCFC09F1FF33A3632369002B40F095
:10148000BC8001F079FA0120A7E001F075FA01F0C3
:1014900051FA94F845506DB2002D16DD636AA3B180
:1014A00004F1240905E0013DEBB25DB26BB1636A62
:1014B0005BB1484600F01EFE0028F4D0013D00F06C
:1014C000B5FEEBB25DB2002BF1D1FF2384F84530BD
:1014D00001F052FA01F02EFA94F844506DB2002D4A
:1014E00016DD2369A3B104F1100905E0013DEBB25B
:1014F0005DB26BB123695BB1484600F0FBFD00288B
:10150000F4D0013D00F092FEEBB25DB2002BF1D1C0
:10151000FF2384F8443001F02FFA012500F050FC3D
:101520009CE701F007FA94F845506DB2002D16DDE6
:10153000636AA3B104F1240905E0013DEBB25DB299
:101540006BB1636A5BB1484600F0D4FD0028F4D06B
:10155000013D00F06BFEEBB25DB2002BF1D1FF2339
:1015600084F8453001F008FA01F0E4F994F84450A9
:101570006DB2002D16DD2369A3B104F1100905E059
:10158000013DEBB25DB26BB123695BB1484600F03F
:10159000B1FD0028F4D0013D00F048FEEBB25DB291
:1015A000002BF1D1FF2384F8443001F0E5F900F07D
:1015B00007FC01F0BFF9A36B63B101F0DDF9012570
:1015C0004CE74FF0500383F31188BFF36F8FBFF3E5
:1015D0004F8FFEE701F0D0F9002005B0BDE8F083A1
:1015E000036C002B3FF4A0AE4FF0500383F311883F
:1015F000BFF36F8FBFF34F8FFEE704F1100000F0D1
:1016000079FD00283FF43DAF044B4FF080521A6043
:10161000BFF34F8FBFF36F8F33E700BF04ED00E0E0
:1016200010B4144B1A688AB19A68BAB11A69BAB17F
:101630009A69BAB11A6ABAB19A6ABAB11A6B22B186
:101640009A6BAAB15DF8044B7047062203EBC20403
:1016500043F8321060605DF8044B70470122F5E7F3
:101660000222F3E70322F1E70422EFE70522EDE788
:101670000722EBE7902D012070B505460C46164673
:1016800001F058F995F84430FF2B04BF002385F88A
:10169000443095F84530FF2B04BF002385F84530D2
:1016A00001F06AF9AB6B2BB93246214605F12400F3
:1016B00000F0BEFC01F03EF995F8454064B2002C04
:1016C00016DD6B6AA3B105F1240605E0013CE3B227
:1016D0005CB26BB16B6A5BB1304600F00BFD002869
:1016E000F4D0013C00F0A2FDE3B25CB2002BF1D1DA
:1016F000FF2385F8453001F03FF901F01BF995F81B
:10170000444064B2002C16DD2B69A3B105F110062C
:1017100005E0013CE3B25CB26BB12B695BB13046D2
:1017200000F0E8FC0028F4D0013C00F07FFDE3B2BB
:101730005CB2002BF1D1FF2385F84430BDE8704046
:1017400001F01AB900F108034FF0FF310022816067
:1017500002604360C3600361704700BF0023036100
:10176000704700BF43684B609A688A609A6851600E
:1017700099600861036801330360704730B40D68F5
:101780006B1C11D000F1080200E01A4653681C6877
:10179000A542FAD24B6099608A6051600861036883
:1017A0000133036030BC704702695368F2E700BF41
:1017B00042688168036991608268416851605A6833
:1017C000904204BF82685A60002202611A68013A9E
:1017D0001A601868704700BF80B5164DDFF860804A
:1017E000154F164EDFF85CA04FF0805914E001F061
:1017F000A1F8FB68DC68201DFFF7DAFF3368013BC6
:1018000033602B68013B2B6001F0B6F8206B01F0D0
:10181000A3FA204601F0A0FA2B68002BE7D1D8F8F4
:101820000030012BF8D9CAF80090BFF34F8FBFF3F7
:101830006F8FF1E7F8000020200000201001002049
:101840005000002004ED00E02DE9F84F414B1D68E9
:1018500001351D60002D56D03F4C23683F4E404F50
:101860009D423CD3DFF80C914FF0000B2EE03D4B36
:101870001A68D268D2F80C80D8F8041008F1040A6B
:101880008D4250465DD3FFF793FFD8F8281008F13A
:10189000180009B1FFF78CFFD8F82C00D9F80030F8
:1018A000012202FA00FC00EB8000514606EB8000AA
:1018B0004CEA0303C9F80030FFF754FF3868D8F842
:1018C0002C10C26A914228BF4FF0010B254B1A68B9
:1018D0001268002ACBD14FF0FF32226001E04FF0B6
:1018E000000B3A682048D26A02EB82029200B1589B
:1018F0000268022928BF4FF0010B002A0CBF58468E
:101900000120BDE8F88F174B1A68126882B9174A90
:101910001868174914681C6010600A6801320A6070
:101920001A6812687AB90C4C4FF0FF33236094E7C1
:101930004FF0500383F31188BFF36F8FBFF34F8FC6
:10194000FEE72160CDE71B68034CDB68DB685B6862
:10195000236082E7C4000020BC000020500000206B
:10196000B80000201800002018010020C800002046
:10197000C0000020140100202DE9F84F9600804699
:1019800030460D4699460B9F01F052F9002800F0B1
:10199000B5808246582001F04BF90446002800F03B
:1019A000AA80C0F830A032465046A52101F023FAA3
:1019B000236B043E1E4426F00706002D00F0AB808A
:1019C0002B7884F834302B782BB36B7884F835304F
:1019D0006B7803B3AB7884F83630AB78DBB1EB7857
:1019E00084F83730EB78B3B12B7984F838302B7921
:1019F0008BB16B7984F839306B7963B1AB7984F84A
:101A00003A30AB793BB1EB7984F83B30EB7913B1E9
:101A10002B7A84F83C30002384F83D300A9D042D55
:101A200028BF04254FF0000B04F1040AE562A56409
:101A30005046C4F84CB0FFF791FEC5F1050504F11E
:101A40001800FFF78BFEC4F850B0A561246184F83C
:101A500054B064624A464146304600F041FF20607F
:101A600007B13C6000F066FF3F4A404E1368013307
:101A700013603368002B45D03D4F3B687BB3E36A6E
:101A8000DFF80C81DFF80CC1DFF80CE1DCF8002096
:101A9000DEF8000001252A44CCF80020226405FA73
:101AA00003F203EB83030243514608EB8300CEF8B5
:101AB0000020FFF757FE00F05FFF3B68C3B13268BC
:101AC000E36AD26A9A4213D22A4B4FF080521A60CC
:101AD000BFF34F8FBFF36F8F2846BDE8F88F326892
:101AE000E36AD26ADFF8A8809A4298BF3460C9E7F7
:101AF0002846BDE8F88F504601F02EF94FF0FF3030
:101B0000BDE8F88F34601368012B07D0E36ADFF873
:101B10008080174FB6E784F834507FE7DFF8708095
:101B2000454608F1640728461435FFF70BFEBD4211
:101B3000F9D1DFF86890104D0D4F4846FFF702FECF
:101B40002846FFF7FFFD0D48FFF7FCFD0C48FFF7A7
:101B5000F9FD0C48FFF7F6FD0B4B0C4AC2F800905C
:101B60001D60E36A8EE700BF10010020B80000206E
:101B70001C00002004ED00E0CC000020FC00002050
:101B80002000002034000020C800002018000020A1
:101B900050000020E000002014010020E40000209C
:101BA0002DE9F0474FF4027001F042F8002800F0F0
:101BB00097800546582001F03BF80446002800F0C5
:101BC0008C8005634FF402722846A52101F013F9B9
:101BD000236B654F00254C2145224926442004F102
:101BE000040803F5017384F8361084F8372084F86C
:101BF000346084F8350084F83850404684F83D500D
:101C0000E562A564E56423F00706FFF7A7FD04F18C
:101C10001800FFF7A3FD05232A462565A361534954
:101C200084F8545030462461646200F059FE504BF1
:101C300020601C6000F07EFE4E4B1A6801321A6074
:101C40003A68002A61D04C4E3368002B51D0E06ACC
:101C50004A4DDFF84CC1DFF84CE1DCF80030DEF82B
:101C600000204FF00109013309FA00F900EB800070
:101C7000236449EA0202414605EB8000CCF80030BB
:101C8000CEF80020FFF76EFD00F076FE336863B1FA
:101C90003A68E36AD26A9A4207D2394B4FF08052CF
:101CA0001A60BFF34F8FBFF36F8F00F0D1FC012894
:101CB00027D14FF0500383F31188BFF36F8FBFF329
:101CC0004F8F3049304B4FF0FF3400220C603060B2
:101CD0001A60BDE8F04700F0C9BE284601F03CF8A4
:101CE0004FF0500383F31188BFF36F8FBFF34F8F13
:101CF000FEE73B68E06ADB6A204D834298BF3C60A8
:101D0000A7E70130ECD0BDE8F0873C601B68012BF1
:101D100003D0E06A194D184E9BE7184D2E4605F189
:101D2000640930461436FFF70DFD4E45F9D1DFF852
:101D300078A0DFF87890104E5046FFF703FD484634
:101D4000FFF700FD1148FFF7FDFC1148FFF7FAFC13
:101D50001048FFF7F7FC104A104BC2F800A0E06AE9
:101D6000C3F8009075E700BFB8000020D91700083D
:101D700048000020100100201C000020500000201E
:101D800004ED00E0BC000020C4000020FC000020A6
:101D9000200000203400002018000020C80000208F
:101DA000E000002014010020E4000020CC0000200E
:101DB000024A136801331360704700BFB40000206B
:101DC0002DE9F84F3F4D2B6843B94FF0500383F393
:101DD0001188BFF36F8FBFF34F8FFEE700F0AAFDAE
:101DE0002B68013B2B602C68002C5ED1364B1B68A6
:101DF000002B5AD0DFF8F4B0344E354FDA4622E0EB
:101E0000DAF80C20D46804F1040904F11800FFF793
:101E1000CFFC4846FFF7CCFCE06A3A682D4B08FA45
:101E200000FE00EB80004EEA0202494603EB800010
:101E30003A60FFF797FC284AE16A1268D26A914239
:101E400028BFC6F80080DBF800204FF00108002A08
:101E5000D6D13CB1214B1A68126862BB204B4FF0BF
:101E6000FF321A601F4F3C689CB14FF0010804E03C
:101E70003B6801333B60013C0AD02B68002BF7D153
:101E8000FFF7E2FC0028F6D0013CC6F80080F4D150
:101E90003C6033684BB1144B4FF080521A60BFF373
:101EA0004F8FBFF36F8F012400E0002400F064FD2A
:101EB0002046BDE8F88F1A68094BD268D26852688C
:101EC0001A60CFE7B40000201001002018010020A4
:101ED0001401002050000020B8000020180000204D
:101EE000BC0000204C00002004ED00E0FC000020BD
:101EF000014B1868704700BFC4000020054B1B68E9
:101F00000BB9FFF7A1BC044A13680133136000202A
:101F1000704700BFB40000204C000020164B1B6827
:101F20002BBB1649164A0B601368B3FA83F3DBB276
:101F3000C3F11F0303EB83039B001248C258C1186F
:101F400042B94FF0500383F31188BFF36F8FBFF393
:101F50004F8FFEE74A68083352684A6003449A424A
:101F600004BF52684A60084BD2681A607047034B3E
:101F700001221A60704700BFB40000201801002041
:101F80001401002050000020B800002050B370B5AC
:101F9000204D0C4629681831FFF7F0FB1E4B1E68D8
:101FA00028680430FFF704FC40B92B681B49D86A45
:101FB0000B680122824023EA02030B60631C1AD0E3
:101FC00034442A68134B5460A6421BD8144A106844
:101FD00019680431FFF7D2FB124B1A68944238BFDC
:101FE0001C6070BD4FF0500383F31188BFF36F8FF7
:101FF000BFF34F8FFEE729680B480431BDE87040FE
:10200000FFF7B0BB094A10681968BDE87040043199
:10201000FFF7B4BBB8000020C4000020140100206A
:1020200018000020BC00002034000020C800002060
:10203000F8B500282FD0284D0C46296818311746CE
:10204000FFF790FB254B1E6828680430002F3CD01A
:10205000FFF7AEFB002831D14FF0FF342B68204949
:10206000D86A0B680122824023EA02030B60631CDA
:1020700022D034442A68184B5460B44214D3194A0D
:10208000106819680431FFF779FB174B1A689442FE
:1020900020D21C60F8BD4FF0500383F31188BFF3CA
:1020A0006F8FBFF34F8FFEE7104A10681968BDE8C5
:1020B000F8400431FFF762BB002FDAD029680C48E2
:1020C0000431BDE8F840FFF74DBBFFF771FB002876
:1020D000CDD1C3E7F8BD00BFB8000020C400002088
:1020E0001401002018000020BC000020C8000020BF
:1020F00034000020F8B5C368DC682CB304F118057F
:102100002846FFF755FB174B1B6833BB271D164EA0
:102110003846FFF74DFBE36A3268144801259D40BD
:1021200003EB83032A43394600EB83003260FFF759
:1021300019FB0F4BE26A1B68DB6A9A4283BF0D4BA7
:10214000012018600020F8BD4FF0500383F3118880
:10215000BFF36F8FBFF34F8FFEE729460648FFF7A7
:1021600001FBE6E7B400002014010020500000202D
:10217000B800002018010020FC000020034A044B96
:1021800012681B6880E80C00704700BFC000002088
:10219000C4000020F8B558B309B30D46044600F05A
:1021A000C9FB2B68DFF880E06668DEF80020591C68
:1021B00033D01C4821680768B94206D0B24204D324
:1021C000012500F0D9FB2846F8BD921B9A4218D38E
:1021D00000232B60012500F0CFFB2846F8BD4FF00F
:1021E000500383F31188BFF36F8FBFF34F8FFEE768
:1021F0004FF0500383F31188BFF36F8FBFF34F8FFE
:10220000FEE79B1A0068DEF800202B6084E80500DA
:10221000002500F0B1FB2846F8BD002500F0ACFB1E
:102220002846F8BDC0000020C4000020014B012258
:102230001A60704718010020054B1B6833B1054B2D
:102240001B68002B0CBF0220002070470120704744
:102250001C000020B400002008B3F8B5284B1B6810
:10226000984208D04FF0500383F31188BFF36F8F6B
:10227000BFF34F8FFEE7C36C43B94FF0500383F3B6
:102280001188BFF36F8FBFF34F8FFEE7C16A826C77
:10229000013B9142C36400D01BB10020F8BD002077
:1022A0007047071D04463846FFF782FAB8B1154853
:1022B000154AA36C1668E362012505FA03FCC3F115
:1022C000050E03EB83034CEA060600EB8300394658
:1022D000C4F818E01660FFF745FA2846F8BDE56A2D
:1022E0000848094A05EB85039B00C358002BE0D141
:1022F0001368012101FA05F523EA05031360D8E705
:10230000B800002050000020140100202DE9F04703
:10231000234D244E84B0A8464FF0000A0EE0DB683F
:10232000DC681F6804F104094846FFF741FA236A94
:102330002046984794F828305B070BD42B6818493F
:102340001A68002AEBD1184A10680860136004B0BC
:10235000BDE8F087A3693B449F42494618D33368E0
:102360006BB1CDF804A002970394FFF765FF00233B
:102370001A4601A93068FEF713FE0028DED14FF09F
:10238000500383F31188BFF36F8FBFF34F8FFEE7C6
:1023900063602461D8F80000FFF7F0F9CEE700BFD2
:1023A0001C01002048010020500100202DE9F04FC1
:1023B000A24CA34EA34DDFF8948289B03368DFF8B6
:1023C00080921F68002F40F0AE80FFF7F1FCFFF70E
:1023D0008FFD2A689B4990428246C0F0B580D8F8AC
:1023E0000020C1F800A01268B2FA82F25209CAEBCA
:1023F00007012068FFF740F9FFF7E2FC38B9924A7D
:102400004FF080531360BFF34F8FBFF36F8F0027E0
:10241000002202A92068FEF77DFF0028CED0029B93
:10242000002BF5DBDDF810B0DBF814301BB10BF13D
:102430000400FFF7BDF9FFF75BFD2B689842C0F081
:102440008A80029B2860092BE2D8DFE803F0313153
:10245000312A0F0531312A0F9BF828309A0740F1B5
:10246000A58023F001038BF82830D1E79BF82820C2
:10247000039BCBF8183042F001028BF82820002B88
:1024800000F0D38003448342CBF80430CBF810B083
:102490000BF1040194BFD8F800003068FFF76EF923
:1024A000B6E79BF8283023F001038BF82830AFE71C
:1024B000039ADBF818109BF82830CBF810B002EB29
:1024C000010E43F0010386458BF82830CBF804E079
:1024D00046D8821A91426DD8DBF82030584698478A
:1024E0009BF828305B0793D523689BB1DBF8183045
:1024F000039A059713440693CDF81CB0FFF79CFE92
:102500004E4800231A4605A90068FEF749FD002839
:102510007FF47EAF4FF0500383F31188BFF36F8FCA
:10252000BFF34F8FFEE7DB681F68FFF741FCFFF743
:10253000DFFC296882468A45424805D35745C0F8E2
:1025400000A017D9002252E7FFF7E0FEC5F800A06F
:10255000FFF736FC5BE70190FFF7D8FE019870E7C4
:10256000824201D97245B7D90BF104013068FFF7F7
:1025700005F94DE7FFF724FCD9F80010C968D1F838
:102580000CB00BF1040108460191FFF711F99BF81B
:102590002800019910F0040F13D120F001008BF8EE
:1025A0002800DBF820305846984730E7584600F0BE
:1025B000D3FB2DE70BF10401D8F80000FFF7DEF89C
:1025C00026E7DBF81800CBF810B03B185345CBF8E2
:1025D000043004D9D9F80000FFF7D0F8E1E7C7EBE1
:1025E0000A0398421CD823688BB14FF00009069764
:1025F000CDF81CB0CDF81490FFF71EFE0F484B46E7
:102600004A4605A90068FEF7CBFC0028C9D14FF067
:10261000500383F31188BFF36F8FBFF34F8FFEE733
:10262000D8F80000FFF7AAF8BBE74FF0500383F398
:102630001188BFF36F8FBFF34F8FFEE74801002073
:102640001C0100204C01002004ED00E0500100209E
:10265000F0B51C4C83B000F06DF92668D6B100F0DF
:102660008BF923686BB1184B0193022300934FF44D
:102670008272002315491648FFF77EF908B103B0AE
:10268000F0BD4FF0500383F31188BFF36F8FBFF39A
:102690004F8FFEE70F4F104D3846FFF753F828468F
:1026A000FFF750F80D4A0E4B17600C2132460A20F6
:1026B0001D60FEF751FC20600028D0D00949FEF7CC
:1026C000AFFFCCE74801002054010020782E00081D
:1026D000AD23000820010020340100201C0100204F
:1026E00050010020702E00082DE9F04F824683B083
:1026F0002C200D461646994600F09AFA044638B347
:10270000002380F8283045B94FF0500383F3118837
:10271000BFF36F8FBFF34F8FFEE71E4F00F00AF934
:10272000D7F80080B8F1000F16D000F025F90C9B07
:10273000C4F800A0A561C4F81C902362201DFFF717
:102740000DF82EB194F8283043F0040384F82830B3
:10275000204603B0BDE8F08F0F4BDFF848B001937F
:102760001846FEF7EFFF5846FEF7ECFF0B49DFF87F
:1027700038E0019B0B6042460C210A20CEF800B0E5
:10278000FEF7EAFB38600028CFD00549FEF748FF86
:10279000CBE700BF48010020200100201C010020E1
:1027A000702E0008340100205001002030B370B5B5
:1027B000174D0446286884B080B1164605291A468C
:1027C0000191029603940BDCFFF736FD02280DD031
:1027D000002328681A4601A9FEF7E2FB04B070BD89
:1027E000002301A9FEF732FD04B070BD2868089AE5
:1027F000002301A9FEF7D4FB04B070BD4FF05003D5
:1028000083F31188BFF36F8FBFF34F8FFEE700BFD5
:102810004801002040B110B5044600F08BF8E4698F
:1028200000F0AAF8204610BD4FF0500383F3118842
:10283000BFF36F8FBFF34F8FFEE700BF38B540B1D6
:1028400004460D4600F076F8E561BDE8384000F03A
:1028500093B84FF0500383F31188BFF36F8FBFF32A
:102860004F8FFEE70E4B1B6882B0002201330192AE
:1028700008D04FF0500383F31188BFF36F8FBFF37D
:102880004F8FFEE74FF0500383F31188BFF36F8F34
:10289000BFF34F8F019B002BFCD002B0704700BFED
:1028A0001400002008480068006880F308884FF092
:1028B000000080F3148862B661B6BFF34F8FBFF398
:1028C0006F8F00DF00BF000008ED00E0DFF80C00B4
:1028D000016841F4700101607047000088ED00E07C
:1028E00030B421F001014FF0807500E92200064C60
:1028F00040F8202C6FF0020340F80C4C40F8243CC8
:1029000030BC4438704700BF652800080000000054
:10291000074B19680868B0E8F04F80F30988BFF3E7
:102920006F8F4FF0000080F311887047AFF3008085
:10293000B80000204FF0500383F31188BFF36F8F6E
:10294000BFF34F8F0A4A13680133012B136000D085
:102950007047084B1B6813F0FF0FF9D04FF050037E
:1029600083F31188BFF36F8FBFF34F8FFEE700BF74
:102970001400002004ED00E0084A136843B94FF04A
:10298000500383F31188BFF36F8FBFF34F8FFEE7C0
:10299000013B13600BB983F31188704714000020CA
:1029A000EFF30980BFF36F8F154B1A681EF0100FFD
:1029B00008BF20ED108A20E9F04F10602DE90900D2
:1029C0004FF0500080F31188BFF34F8FBFF36F8F2C
:1029D000FFF7A4FA4FF0000080F3118809BC1968D2
:1029E0000868B0E8F04F1EF0100F08BFB0EC108A76
:1029F00080F30988BFF36F8F704700BFAFF300808B
:102A0000B800002008B54FF0500383F31188BFF3DE
:102A10006F8FBFF34F8FFFF771FA18B1034B4FF071
:102A200080521A60002383F3118808BD04ED00E092
:102A300030B4094A094D0A4B0A4C0B480021116079
:102A400029601B68A4FB03139B09013B072103605A
:102A5000116030BC704700BF10E000E018E000E0FB
:102A600000000020D34D621014E000E03B4B3C4AD4
:102A70001968914239D01A683A4B9A423ED010B543
:102A8000394B3A491A783A4C82B0D2B2FF200192BF
:102A900018701B78DBB28DF803309DF803309DF879
:102AA0000320072003F0500308601006237048BF7E
:102AB000062301D410E003469DF803205200D2B251
:102AC0008DF803209DF80320120603F1FF30F2D4A5
:102AD000032B0B60254C1AD04FF0500383F3118861
:102AE000BFF36F8FBFF34F8FFEE74FF0500383F3B9
:102AF0001188BFF36F8FBFF34F8FFEE74FF0500386
:102B000083F31188BFF36F8FBFF34F8FFEE70199F7
:102B10001548184A1B02C9B203F4E0632360017030
:102B2000136843F470031360136843F07043136039
:102B3000FFF77EFF104B00241C60FFF7C7FE0F4A13
:102B4000136843F040431360FFF7ACFEFFF7E6F96C
:102B5000FFF788FE204602B010BD00BF00ED00E088
:102B600071C20F4170C20F4100E400E05C0100201F
:102B70005801002020ED00E01400002034EF00E0B8
:102B8000EFF305830F2B0ED91049114A5B5C1278C5
:102B90009A4208D94FF0500383F31188BFF36F8F27
:102BA000BFF34F8FFEE70B4B0B4A1B68126803F411
:102BB000E063934208D94FF0500383F31188BFF3C9
:102BC0006F8FBFF34F8FFEE7704700BFF0E300E069
:102BD000580100200CED00E05C010020124B1A6847
:102BE000824201D21346FAE710B459685C18A04239
:102BF00003D1406801445960184641684418A24214
:102C00000AD10A4C2468A24206D05268114441609D
:102C10001A681268026000E00260984218BF1860EB
:102C20005DF8044B704700BF6C0100206801002074
:102C3000F8B50446FFF7BCF840480368002B57D0AE
:102C40003F4A15682C424ED1002C4CD004F10802AA
:102C500051071CBF22F007020832002A43D0394F27
:102C60003E68B2423FD838490C6803E0206820B182
:102C70002146044660688242F8D89C4233D02368DB
:102C80000B606368991A102910D9A018430708D05F
:102C90004FF0500383F31188BFF36F8FBFF34F8F53
:102CA000FEE741606260FFF799FF636827490868A3
:102CB000F21A824238BF0A6025493A600A682B43FB
:102CC000002063602060013208340A60FFF778F862
:102CD00063070BD04FF0500383F31188BFF36F8F5E
:102CE000BFF34F8FFEE7FFF76BF800242046F8BDD7
:102CF00018494D071FD0CA1D22F0070201F596336F
:102D00009B1A11460B44083B23F007030D4D0E4E52
:102D1000DFF838E00A4F03605A1A00202A604FF0AB
:102D200000457060316058601860CEF800203D604A
:102D30004A600B6086E74FF49633E3E768010020B2
:102D4000782D0120640100206C0100207C2D0120E1
:102D50006001002078010020D0B11B4A50F8043CEB
:102D60001268134208D14FF0500383F31188BFF368
:102D70006F8FBFF34F8FFEE750F8081C49B14FF03B
:102D8000500383F31188BFF36F8FBFF34F8FFEE7BC
:102D9000704723EA020310B540F8043C0446FFF7ED
:102DA00007F80A4A54F8041C1368A4F108000B44FD
:102DB0001360FFF713FF064A136801331360BDE881
:102DC0001040FEF7FDBF00BF782D012064010020F8
:102DD00074010020014B1868704700BF6401002097
:102DE00010B5431E0A44914204D011F8014B03F878
:102DF000014FF8E710BD02440346934202D003F8A6
:102E0000011BFAE7704700004175746F52656C6FE3
:102E10006164204944203A202564205469636B2072
:102E20003A2025640A0D00004F6E6553686F7420C8
:102E300054696D6572204944203A20256420546904
:102E4000636B203A2025640A0D0000004175746F01
:102E50002052656C6F6164004F6E652053686F741B
:102E60002000000068656C6C6F20776F726C6400E6
:102E7000546D725100000000546D7220537663004F
:102E800000E1F50500000000010203040102030453
:082E900006070809AAAAAAAA74
:04000005080003D11B
:00000001FF
