:020000040800F2
:1000000000000220950100082105000825050008D0
:100010009101000891010008910100080000000012
:10002000000000000000000000000000011C0008AB
:100030009101000800000000911C0008F51C000858
:100040009101000891010008910100084D05000888
:100050009101000891010008910100089101000838
:100060009101000891010008910100089101000828
:100070009101000891010008910100089101000818
:100080009101000891010008910100089101000808
:1000900091010008910100089101000891010008F8
:1000A00091010008910100089101000891010008E8
:1000B00091010008910100089101000891010008D8
:1000C00091010008910100089101000891010008C8
:1000D000910100089101000829050008910100081C
:1000E00091010008790500089101000891010008BC
:1000F0009101000891010008910100089101000898
:100100009101000891010008910100089101000887
:100110009101000891010008910100089101000877
:100120009101000891010008910100089101000867
:100130009101000891010008910100089101000857
:100140009101000891010008910100089101000847
:100150009101000891010008910100089101000837
:100160009101000891010008910100089101000827
:100170009101000891010008910100089101000817
:08018000910100089101000843
:10019000FEE700BF684620F007018D4601B5104A12
:1001A0001048904207D2013A121A22F00302043298
:1001B0000D4902F0FDFB0D480D4A904207D2013A6D
:1001C000121A22F003020432002102F0FFFB00F0B9
:1001D00005FA00F063F9BDE801408546704700BFAD
:1001E0001800002000000020142A00081800002039
:1001F000C42D012008B50A4C4FF40041204600F000
:10020000AFFA4FF42F7000F0AFFF20464FF40041DB
:1002100000F0A8FA4FF42F7000F0A6FFECE700BF43
:10022000000C024008B50A4C4FF48041204600F013
:1002300097FA4FF4487000F097FF20464FF4804142
:1002400000F090FA4FF4487000F08EFFECE700BF2A
:10025000000C024008B50A4C4FF40051204600F053
:100260007FFA4FF4617000F07FFF20464FF4005199
:1002700000F078FA4FF4617000F076FFECE700BF11
:10028000000C02400EB42DE9F04F252182B0DFF8BA
:10029000D4A0314E314D0CAB252901934FF06409A8
:1002A0000AF1010418D1B9F1640F0AF1020722D052
:1002B000B9F1730F06D1019B28461A1D19680192E6
:1002C00000F064FB9AF80210BA4679B1252994F837
:1002D00002900AF10104E6D089B2284600F04AFBF8
:1002E0002346494654469A460029EFD102B0BDE85C
:1002F000F04F03B07047019BD3F800900433019393
:10030000B9F1000FDED04B460122154981FB0301F4
:10031000DB1702EB8202D3EBA1034FEA4202F4D1D6
:10032000A6FB023B092A4FEADB0B01D8CAE7C3460A
:10033000B9FBFBF303F13001A6FB0B02DBB2C9B240
:1003400028460BFB13994FEAD20800F013FBBBF1D0
:10035000090FECD8B6E700BFCDCCCCCC00440040B0
:1003600067666666FC29000838B5042001F094FD34
:100370000E4D04462368013323604FF48051284614
:1003800000F0EEF94FF47A7000F0EEFE4FF4805179
:10039000284600F0E7F94FF47A7000F0E5FE226895
:1003A00003490448FFF76EFFE4E700BF000C02407A
:1003B000FC2900080044004070B5012186B00820E7
:1003C00000F0C2FB0121084600F0BEFB01214FF402
:1003D000003000F0C5FB2D4D2D4E2E4C01214FF469
:1003E000804000F0C9FB4FF47042694640F201338F
:1003F00029480092019300F06DF9042369462846CC
:10040000CDE9003600F066F907222846022100F007
:10041000ABF9082369462846CDE9003600F05AF9C1
:1004200007220321284600F09FF9204600F0B2F988
:100430004FF4E13500234FF44022204602A9CDE9D4
:100440000332ADF81430029500F02AFA204601215B
:1004500000F084FA2046202100F0B2FA2046012163
:1004600000F0B8FA20460122802100F0BFFA2046B1
:10047000012240F2255100F0C3FA204601224FF438
:10048000B07100F0BDFA06B070BD00BF00000240C0
:100490000202000200440040000C024030B583B06C
:1004A00000240425FFF788FF23460194009580224D
:1004B0001249134800F046FD2346CDE9005480223E
:1004C0001049114800F03EFD2346CDE9005480223A
:1004D0000E490F4800F036FD234680220D490E4894
:1004E000CDE9005400F02EFD01F0F2FD0B4B186039
:1004F00000F06AFE204603B030BD00BFDC290008D2
:1005000069030008E429000855020008EC290008E6
:1005100025020008F4290008F5010008802D0120BB
:10052000704700BFFEE700BF08B52021064800F075
:1005300085FA00B908BD044800F03EFABDE808405D
:10054000C1B2014800F016BA0044004008B54FF4AB
:10055000804000F08DFA20B9064B4FF480025A61BA
:1005600008BD4FF4806000F075FA024B4FF4800232
:100570005A6108BD003C014008B54FF4805000F0BE
:1005800077FA01280BD04FF4005000F071FA0128DF
:1005900013D04FF40030BDE8084000F055BA3121C7
:1005A0000D4800F0E7F94FF4805000F077FA4FF46F
:1005B000005000F05DFA0128EBD13221064800F02E
:1005C000D9F94FF4005000F069FA4FF40030BDE85B
:1005D000084000F039BA00BF004400403749384BAA
:1005E000D1F88820374842F47002C1F888201A6890
:1005F000002142F001021A6099601A6822F08472A8
:1006000022F480321A6058601A6882B022F4802284
:100610001A60D960009101911A6842F480321A6020
:1006200003E0009AB2F5A04F09D01A6802F4003234
:100630000192009A01320092019A002AF1D0204BD7
:100640001B6813F4003318BF01230193019B012B96
:1006500005D01A4B4FF000629A6002B07047184BF9
:1006600019491A6C194842F080521A640A6842F417
:1006700040420A609A689A609A689A609A6842F45E
:1006800080529A6058601A6842F080721A601A6844
:100690009201FCD50E4A0A4940F2057010609A6832
:1006A00022F003029A609A6842F002029A608B6814
:1006B00003F00C03082BFAD1CBE700BF00ED00E0FC
:1006C000003802401030002400700040083240041E
:1006D000003C0240F0B500230126032702E001336D
:1006E000102B3CD00C6806FA03F232EA0404F6D16F
:1006F0005D00046807FA05FC6FEA0C0C04EA0C04C0
:1007000004600C79D0F800E0AC4044EA0E040460C8
:100710000C79013C012C07FA05FE14D884680CEA18
:10072000040484604C79D0F808C0AC4044EA0C045E
:100730008460446824EA020242608C7942689C40EA
:10074000A4B214434460C26822EA0E02C260CA79AD
:10075000C468AA4001332243102BC260C2D1F0BD4D
:10076000018370474183704710B4CB0800EB8300CE
:1007700001F00701036A89000F248C4023EA040377
:100780000362036A02FA01F1194301625DF8044B46
:10079000704700BF08B53A4B984221D0394B984278
:1007A00028D0394B984231D0384B98420CD0384B36
:1007B000984237D0374B984240D0374B984247D079
:1007C000364B984250D008BD01214FF4002000F074
:1007D000DFF900214FF40020BDE8084000F0D8B94F
:1007E0000121102000F0E0F900211020BDE80840B0
:1007F00000F0DAB901214FF4003000F0C9F900210E
:100800004FF40030BDE8084000F0C2B901214FF4B8
:10081000802000F0BDF900214FF48020BDE80840A1
:1008200000F0B6B901214FF4801000F0B1F90021B9
:100830004FF48010BDE8084000F0AAB90121202043
:1008400000F0B2F900212020BDE8084000F0ACB96A
:1008500001214FF0804000F09BF900214FF08040D3
:10086000BDE8084000F094B901214FF0004000F0CD
:100870008FF900214FF00040BDE8084000F088B932
:10088000001001400044004000480040004C00407F
:10089000005000400014014000780040007C0040FF
:1008A00070B5028ACB8892B222F440520D461A43A8
:1008B00002820446AB882E896889A2892449334381
:1008C0000A4003431343A381A38AAA899BB223F45A
:1008D0004073134384B0A382684600F0EDF81D4BCB
:1008E0009C4205D003F580639C4201D0029A00E04F
:1008F000039AA3892868184D190402EB820202EBBF
:1009000082024CBF40008000B2FBF0F0A289A5FB40
:10091000003149096423120403FB11034FEA01115A
:100920000AD41B013233A5FB0323C3F343130B4348
:100930009BB2238104B070BDDA003232A5FB0232D3
:10094000C2F3421242EA01039BB2238104B070BD9C
:10095000F3E9FFFF001001401F85EB51838919B1B6
:1009600043F400538381704723F400531B041B0C92
:1009700083817047C1F30801818003885A0603D43C
:1009800000BF03885B06FBD5704700BF0B781BB91F
:1009900010E011F8013F63B19BB2838003885A06CF
:1009A000F7D400BF03885B06FBD511F8013F002B8D
:1009B000F2D17047704700BF8088C0F308007047CD
:1009C000038A23F020031B041B0C0382038A1943B0
:1009D00001827047038A19B143F480430382704750
:1009E00023F480431B041B0C03827047838A12B1DB
:1009F00019438182704723EA01018182704700BF59
:100A000010B401F01F04C1F342110123012903FABC
:100A100004F311D002290CBF103014302AB102683F
:100A2000134303605DF8044B7047026822EA030336
:100A300003605DF8044B70470C30EFE70388194200
:100A400014BF012000207047014B5861704700BF60
:100A5000003C0140054AD36880B240F0800003F0BA
:100A6000800363EA0003D360704700BF00280040A2
:100A700009490B6C8A68C96803EAD03303F00403A0
:100A80000240134306D001EA101080B2003018BFB4
:100A9000012070471846704700280040054AD36877
:100AA000C0F30F1040F0800003F0800363EA0003FE
:100AB000D36070470028004010B41F4A936803F0C9
:100AC0000C03042B1BD0082B1CD01C4B03601A4AB0
:100AD0001B499468C4F303140C5DE34043609468BD
:100AE000C4F382240C5D23FA04F4846092685DF8F8
:100AF000044BC2F342328A5CD340C3607047114B4F
:100B00000360E4E75468516852686302C2F38812D4
:100B100001F03F014CBF0B4B084BB3FBF1F303FB60
:100B200002F3054A5268C2F3014201325200B3FB9C
:100B3000F2F30360CBE700BF003802400024F4006A
:100B40000400002000127A00044A136B11B1034321
:100B50001363704723EA00031363704700380240B1
:100B6000044A136C11B103431364704723EA000372
:100B70001364704700380240044A536C11B10343B8
:100B80005364704723EA00035364704700380240FF
:100B9000044A136A11B103431362704723EA000346
:100BA0001362704700380240044A536A11B103438C
:100BB0005362704723EA00035362704700380240D3
:100BC00080B5164C164F174EDFF85C80DFF85CA03E
:100BD0004FF0805914E001F025F8FB68DD68281D0E
:100BE00001F0D4FE3368013B33602368013B23608E
:100BF00001F03AF8286B01F00BFA284601F008FAE8
:100C00002368002BE7D1D8F80030012BF8D9CAF8B7
:100C10000090BFF34F8FBFF36F8FF1E78C00002080
:100C200000010020880000202400002004ED00E0E6
:100C3000F8B51B4B1B4E1C6833680546181D0F4644
:100C400001F0A4FE40B933681749D86A0B68012245
:100C5000824023EA02030B606B1C17D033686419CF
:100C60005C6007D3114B18683168BDE8F840043167
:100C700001F072BE0E4B18683168043101F06CFE51
:100C80000C4B1A68A24288BF1C60F8BD002FE5D04B
:100C9000316809480431BDE8F84001F051BE00BF99
:100CA00014010020180000209800002020000020DF
:100CB0001C000020C8000020EC0000202DE9F84FA7
:100CC000434B1E6801361E60002E41D0414D2B68FB
:100CD0009E424AD3404C414FDFF814814FF0000B45
:100CE0002EE02268D268D2F80C90D9F8041009F1ED
:100CF000040A8E42504668D301F048FED9F8281005
:100D000009F1180009B101F041FE354AD9F82C006B
:100D10001368012101FA00FC00EB8000514607EB4B
:100D200080004CEA030CC2F800C001F009FED8F8BC
:100D30000000D9F82C10C26A914228BF4FF0010B75
:100D400022681268002ACCD14FF0FF322A6011E0ED
:100D5000214C23681B6803B34FF0500383F31188C1
:100D6000BFF36F8FBFF34F8FFEE71C4FDFF880801C
:100D70004FF0000BD8F800201A48D26A02EB82022A
:100D80009200B9580268022928BF4FF0010B002ACF
:100D90000CBF58460120BDE8F88F134B2168134A59
:100DA00018682060196013680133136023681B689A
:100DB00023B9084D4FF0FF332B6088E72368054DBA
:100DC000DB68DB685B682B6081E72960D2E700BFE6
:100DD00014010020C80000201C0000202400002076
:100DE000980000201801002020000020CC000020E6
:100DF000180000202DE9F04F474D83B000F012FF9E
:100E00002B68013B2B602B68002B6CD1434B1B687C
:100E1000002B68D0DFF820A1DAF80020002A77D074
:100E20003F4B404EDFF81491DFF814810193012706
:100E3000DAF80C20D2F80CB00BF104040BF1180016
:100E400001F0A4FD204601F0A1FDDBF82C00336881
:100E500007FA00F200EB80001A43214609EB8000FC
:100E6000326001F06DFDD8F80020DBF82C10D26A5A
:100E700091423FD3019B1F60DAF80020002AD7D1AE
:100E8000294B1A681268002A3DD01A68274BD2688D
:100E9000D26852681A60264E346894B1012706E081
:100EA000FFF70CFF08B1019B1F60013C08D02B68C5
:100EB000002BF5D03368013C03F101033360F6D118
:100EC0003460019B1B6873B11A4B4FF080521A605B
:100ED000BFF34F8FBFF36F8F00F0C6FE0124204693
:100EE00003B0BDE8F08F00F0BFFE0024204603B041
:100EF000BDE8F08FDAF80020002A99D10A4B1A6871
:100F00001268002AC1D1094B4FF0FF321A60C2E7C4
:100F1000034B0193BFE700BF900000208800002032
:100F200018010020980000201C000020C8000020AC
:100F3000D000002004ED00E0D400002024000020B8
:100F4000180000202DE9F84F9600074630460D4660
:100F5000984600F0A1FF002800F0A58081465820A7
:100F600000F09AFF0446002800F0A180C0F83090FD
:100F700032464846A52101F029FDD4F830A0002DC5
:100F800000F09B802B7884F83430F3B16B7884F8D0
:100F90003530D3B1AB7884F83630B3B1EB7884F820
:100FA000373093B12B7984F8383073B16B7984F88A
:100FB000393053B1AB7984F83A3033B1EB7984F8F6
:100FC0003B3013B12B7A84F83C30002384F83D3059
:100FD0000A9D042D28BF04254FF0000B04F10409DD
:100FE000E562C4E9125B4846043E01F0A5FCC5F188
:100FF000050504F11800564401F09EFCC4F850B0F9
:10100000A56126F0070084F854B02461646242466A
:10101000394600F0DDFD0B9B206003B11C6000F041
:1010200001FE3F4A3F4E1368013313603368002BC3
:1010300046D03D4FE36A3A6822B93268D26A9A4292
:1010400098BF3460DFF81481DFF814C1D8F80020AD
:10105000DCF800E03548013201252264C8F80020A0
:1010600005FA03F203EB830342EA0E0200EB83006E
:101070004946CCF8002001F063FC00F0F5FD3B6828
:1010800073B13268E36AD26A9A4209D2284B4FF0B0
:1010900080521A60BFF34F8FBFF36F8F284600E076
:1010A0002846BDE8F88F4FF0FF30BDE8F88F48467E
:1010B00000F0AEFF4FF0FF30F3E784F8345087E7DD
:1010C00034601368012B02D0E36A174FBAE7174860
:1010D000DFF89080174D144F01F022FC164801F004
:1010E0001FFC164801F01CFC154801F019FC1548BE
:1010F00001F016FC404601F013FC284601F010FCFC
:10110000114801F00DFC114801F00AFC104801F0F3
:1011100007FC104B104AC2F800801D60E36A91E79B
:101120008800002018000020E80000202400002093
:1011300004ED00E0B0000020380000204C0000204A
:101140006000002074000020D40000200001002076
:10115000EC000020200000201C0000209400002053
:10116000980000209C00002010B540B9144B4FF0AF
:1011700080521A60BFF34F8FBFF36F8F10BD114CB9
:10118000216841B14FF0500383F31188BFF36F8F93
:10119000BFF34F8FFEE7236801332360FFF748FD5D
:1011A000236843B94FF0500383F31188BFF36F8F67
:1011B000BFF34F8FFEE7FFF71DFE0028D6D010BD0E
:1011C00004ED00E0900000202DE9F8434FF4027098
:1011D00000F062FE002800F08E800546582000F0E6
:1011E0005BFE0446002800F083804FF40272A521C4
:1011F0000563284601F0EAFB00255E4B6363271D6B
:101200003846D4F8308084F8385084F83D50E56290
:10121000C4E9125501F090FB04F1180001F08CFBB9
:10122000052308F501702A462565A361524924610A
:1012300020F0070084F85450646200F0C9FC4F4B62
:1012400020601C6000F0EEFC4D4B4E4E1A680132DF
:101250001A603268002A57D04B4DE36A2A6822B9D7
:101260003268D26A9A4298BF3460DFF85481DFF85E
:1012700054C1D8F80020DCF800E044480132226470
:10128000C8F8002001229A4003EB830342EA0E02D1
:1012900000EB83003946CCF8002001F051FB00F050
:1012A000E3FC2B6863B13268E36AD26A9A4207D2E0
:1012B000374B4FF080521A60BFF34F8FBFF36F8FE1
:1012C00000F0FCFB012826D14FF0500383F3118876
:1012D000BFF36F8FBFF34F8F2E4B2F494FF0FF346B
:1012E00000220C6028601A60BDE8F84300F036BDAB
:1012F000284600F08DFE4FF0500383F31188BFF3B2
:101300006F8FBFF34F8FFEE734601B68012B06D051
:10131000E36A1D4DA9E70130EDD0BDE8F8831B4815
:10132000DFF8A490DFF8A480174D01F0F9FA1B480C
:1013300001F0F6FA1A4801F0F3FA1A4801F0F0FA4F
:10134000194801F0EDFA484601F0EAFA404601F08A
:10135000E7FA164801F0E4FA154801F0E1FA1548F9
:1013600001F0DEFA144B154AC2F80090C3F8008071
:10137000E36A7AE749444C45C10B0008C4000020E9
:101380008800002018000020E80000202400002031
:1013900004ED00E014010020C80000203800002007
:1013A0004C0000206000002074000020D4000020C9
:1013B00000010020EC000020200000201C00002084
:1013C00094000020980000209C000020B000002025
:1013D000024A136801331360704700BF9000002079
:1013E000064B1B6843B94FF0500383F31188BFF3DA
:1013F0006F8FBFF34F8FFEE7FFF7FCBC900000201C
:10140000014B1868704700BF14010020054B1B6892
:101410000BB9FFF753BC044A136801331360002073
:10142000704700BF90000020D0000020164B1B68C2
:101430001BB1164B01221A6070471449144A0B6005
:101440001368B3FA83F3DBB2C3F11F0303EB830327
:101450009B001049CA58C81842B94FF0500383F393
:101460001188BFF36F8FBFF34F8FFEE742680833D9
:10147000526842600B449A4204BF52684260064B75
:10148000D2681A60704700BF900000201801002049
:1014900098000020240000201800002020B370B520
:1014A0001F4D0C462968183101F056FA1D4B1E6875
:1014B0002868043001F06AFA40B92B681A49D86AE2
:1014C0000B680122824023EA02030B60631C14D0E4
:1014D0002B68A4195C6017D3144B18682968BDE801
:1014E0007040043101F038BA4FF0500383F3118893
:1014F000BFF36F8FBFF34F8FFEE729680C480431AD
:10150000BDE8704001F01CBA0A4B18682968043124
:1015100001F022FA084B1A68944238BF1C6070BD73
:101520001800002014010020980000202000002056
:10153000EC0000201C000020C800002038B588B155
:101540000D4B0D4619681446183101F0F9F9002CBD
:1015500008BF2846214618BF4FF0FF30BDE838408D
:10156000FFF766BB4FF0500383F31188BFF36F8F13
:10157000BFF34F8FFEE700BF18000020F8B5C36827
:10158000DC6854B304F11805284601F0FFF9174B45
:101590001B6873B12946164801F0D2F9154BE26A6F
:1015A0001B68DB6A9A4283BF134B0120186000203E
:1015B000F8BD261D114D304601F0E8F9E26A2F68AA
:1015C0000F480123934002EB82023B43314600EB7C
:1015D00082002B6001F0B4F9E0E74FF0500383F391
:1015E0001188BFF36F8FBFF34F8FFEE7900000208D
:1015F000D4000020180000201801002098000020CE
:1016000024000020034A044B12681B68C0E9002331
:10161000704700BFCC00002014010020F8B508B3CB
:10162000B9B10D46044600F0FDFA2B68DFF878C02A
:101630005A1CDCF800102BD01A4ED4E9000237688F
:10164000B84218D08A4216D8012500F00DFB284672
:10165000F8BD4FF0500383F31188BFF36F8FBFF3D2
:101660004F8FFEE74FF0500383F31188BFF36F8F66
:10167000BFF34F8FFEE78F1ABB420ED95B1A13449C
:101680003168DCF800202B600025C4E90012DCE79B
:10169000002500F0E9FA2846F8BD00232B6001255B
:1016A000D3E700BFCC00002014010020014B012231
:1016B0001A60704718010020054B1B6833B1054BB9
:1016C0001B68002B0CBF02200020704701207047D0
:1016D000E800002090000020C0B1F8B5284B1B683E
:1016E000834208D04FF0500383F31188BFF36F8F0C
:1016F000BFF34F8FFEE7DB6C53B1C16A826C013BD5
:101700009142C36400D063B10020F8BD002070474F
:101710004FF0500383F31188BFF36F8FBFF34F8FE8
:10172000FEE7071D0446384601F030F9C0B1154800
:10173000154AA36CD2F800E0E3620125C3F1050C61
:1017400005FA03F603EB830346EA0E0600EB83007B
:101750003946C4F818C0166001F0F2F82846F8BD02
:10176000E16A0848084A01EB81039B00C358002B3B
:10177000DFD1136801258D4023EA05031360D8E704
:101780001800002024000020980000202DE9F043DC
:10179000224EDFF8909085B04FF000080DE0DB6836
:1017A000DC681F68251D284601F0F0F8236A2046F2
:1017B000984794F828305B070AD433681A68002ADF
:1017C000EDD1174A11683160136005B0BDE8F083B0
:1017D000A3693B449F42294605D263602461306877
:1017E00001F0BAF8E9E7D9F800306BB1CDE901872B
:1017F0000394FFF761FF00231A4601A9D9F80000FE
:1018000000F0E8FC0028D8D14FF0500383F3118892
:10181000BFF36F8FBFF34F8FFEE700BF1C010020A7
:1018200020010020500100202DE9F04F9E4E9F4DD9
:101830009F4FA04C89B04FF000083368D3F800A048
:10184000BAF1000F00F0AF80DB68D3F800A0FFF71B
:10185000BFFDFFF7D5FD2A6890428146C0F0B380F6
:101860008245286040F2B9800022AAEB0901206875
:1018700000F0EEFFFFF7B4FD38B98F4B4FF0805208
:101880001A60BFF34F8FBFF36F8F002202A9206849
:1018900000F02AFE0028D0D0029B002BF5DBDDF8FB
:1018A00010B0DBF814301BB10BF1040001F06EF83E
:1018B000FFF7A6FD2B6898428146C0F08B80029B03
:1018C000C5F80090092BE0D8DFE803F0303030296C
:1018D0000F053030290F9BF828309A0740F1A2807D
:1018E00023F001038BF82830CFE79BF82820039BD7
:1018F000CBF8183042F001028BF82820002B00F0C2
:10190000C6804B444B45CBF80430CBF810B00BF1FC
:10191000040194BF3868306801F01EF8B5E79BF801
:10192000283023F001038BF82830AEE79BF828100D
:10193000039BDBF81820CBF810B0981841F0010198
:101940008BF828102CBF012100214845CBF804005A
:101950005ED8A9EB03039A4268D8DBF820305846DA
:1019600098479BF828305B078FD5236893B1DBF845
:101970001820039BCDF814801344CDE9063BFFF7F4
:101980009BFE00231A4605A9206800F023FC0028CE
:101990007FF47BAF4FF0500383F31188BFF36F8F59
:1019A000BFF34F8FFEE7FFF713FDFFF729FD2A680E
:1019B0008242814607D83A68C5F800901268B2FAA8
:1019C00082F2520951E7FFF7E1FEC5F80090FFF7F8
:1019D00007FD5AE7FFF7DAFE71E7FFF701FD32680E
:1019E000D268D2F80CB00BF104010846019100F066
:1019F000CDFF9BF82800019910F0040F1CD120F0B6
:101A000001008BF82800DBF82030584698473CE767
:101A10004B4501D90029A0D00BF10401306800F03A
:101A20009BFF32E7584600F0F3FA2EE70BF1040172
:101A3000386800F091FF28E7DBF81800CBF810B009
:101A40000AEB00034B45CBF8043003D9306800F0B3
:101A500083FFD8E7A9EB0A03984221D823686BB12A
:101A6000CDE9058ACDF81CB0FFF726FE00231A4603
:101A700005A9206800F0AEFB0028C4D14FF0500348
:101A800083F31188BFF36F8FBFF34F8FFEE74FF0E3
:101A9000500383F31188BFF36F8FBFF34F8FFEE7BF
:101AA000386800F059FFAEE71C0100204C0100200F
:101AB000200100205001002004ED00E0F0B51C4C96
:101AC00083B000F0AFF82668D6B100F0CDF82368F7
:101AD0005BB1184B0193022300934FF482720023F1
:101AE00015491648FFF72EFA40B94FF0500383F31B
:101AF0001188BFF36F8FBFF34F8FFEE703B0F0BDC8
:101B00000F4F104D384600F00BFF284600F008FF3D
:101B10000D4A0E4B17600C2132460A201D6000F062
:101B200019FB20600028D0D0094900F067FECCE7FF
:101B300050010020540100200C2A00082918000838
:101B400024010020380100201C0100202001002079
:101B5000042A000808480068006880F308884FF0ED
:101B6000000080F3148862B661B6BFF34F8FBFF3F5
:101B70006F8F00DF00BF000008ED00E0DFF80C0011
:101B8000016841F4700101607047000088ED00E0D9
:101B90000E4B1B6882B000220133019208D04FF037
:101BA000500383F31188BFF36F8FBFF34F8FFEE7AE
:101BB0004FF0500383F31188BFF36F8FBFF34F8F44
:101BC000019B002BFCD002B0704700BF1400002026
:101BD00030B421F001014FF0807540E90215064C48
:101BE00040F8202C6FF0020340F80C4C40F8243CE5
:101BF00030BC4438704700BF911B00080000000053
:101C0000074B19680868B0E8F04F80F30988BFF304
:101C10006F8F4FF0000080F311887047AFF30080A2
:101C2000180000204FF0500383F31188BFF36F8F2B
:101C3000BFF34F8F0A4A13680133012B136000D0A2
:101C40007047084B1B6813F0FF0FF9D04FF050039B
:101C500083F31188BFF36F8FBFF34F8FFEE700BF91
:101C60001400002004ED00E0084A136843B94FF067
:101C7000500383F31188BFF36F8FBFF34F8FFEE7DD
:101C8000013B13600BB983F31188704714000020E7
:101C9000EFF30980BFF36F8F154B1A681EF0100F1A
:101CA00008BF20ED108A20E9F04F10602DE90900EF
:101CB0004FF0500080F31188BFF34F8FBFF36F8F49
:101CC000FFF7B4FB4FF0000080F3118809BC1968DE
:101CD0000868B0E8F04F1EF0100F08BFB0EC108A93
:101CE00080F30988BFF36F8F704700BFAFF30080A8
:101CF0001800002008B54FF0500383F31188BFF39C
:101D00006F8FBFF34F8FFFF781FB18B1034B4FF07D
:101D100080521A60002383F3118808BD04ED00E0AF
:101D200030B4094A094D0A4B0A4C0B480021116096
:101D300029601B68A4FB03139B09013B0721036077
:101D4000116030BC704700BF10E000E018E000E018
:101D500000000020D34D621014E000E0454B464ADD
:101D60001968914241D01A68444B9A4234D030B538
:101D7000434B444C1A78444985B0D2B2FF200292BA
:101D800018701B78DBB28DF807309DF807309DF88E
:101D9000072003F05003072012062370086048BF95
:101DA000062201D40FE002469DF807305B00DBB24B
:101DB0008DF807309DF807301B0602F1FF30F2D492
:101DC000032A1BD00A604FF0500383F31188BFF33E
:101DD0006F8FBFF34F8FFEE74FF0500383F31188EF
:101DE000BFF36F8FBFF34F8FFEE74FF0500383F3C6
:101DF0001188BFF36F8FBFF34F8FFEE7029A204821
:101E0000224B234CD2B24FF440750D6002701A6819
:101E100042F470021A601A6842F070421A6000259B
:101E2000FFF77EFF2560FFF7A9FE1A4A136843F00B
:101E300040431360FFF78EFEFFF7F8FA236803951F
:101E4000013308D04FF0500383F31188BFF36F8F35
:101E5000BFF34F8FFEE74FF0500383F31188BFF3BA
:101E60006F8FBFF34F8F039B002BFCD0002005B07A
:101E700030BD00BF00ED00E071C20F4170C20F41E4
:101E800000E400E0580100205C01002020ED00E0AB
:101E90001400002034EF00E02DE9F8430446FFF77A
:101EA00097FA534B1E68002E39D0524B1D682C42B6
:101EB0002FD174B304F108035A071CBF23F00703A2
:101EC000083333B34C4FD7F800C09C4521D34B4A5D
:101ED000106803E0016821B1024608464168994252
:101EE000F8D3B04215D0044654F8081B116042687C
:101EF000D11A102953D900EB030E1EF0070F2CD076
:101F00004FF0500383F31188BFF36F8FBFF34F8FF0
:101F1000FEE7FFF765FA00242046BDE8F883384A5B
:101F2000384E394F344D3548510718BF073226F027
:101F3000070618BF22F007021146B21A3A602D4F69
:101F40001E602A6000234FF00045C0E900133D6089
:101F5000C6E90033C1E90062A9E7CEF80410DFF852
:101F60009C80436000E09846D8F800309E45FAD83F
:101F7000D8F80410DEF8042008EB0109CE4503D19F
:101F80000A44C8F80420C6460EEB02018B4223D057
:101F9000CEF80030F04518BFC8F800E042681A4E8D
:101FA0003168ACEB02038B42184938BF33603B60A9
:101FB0000B682A4300250133426005600B60FFF780
:101FC0000FFA6307A8D04FF0500383F31188BFF3D3
:101FD0006F8FBFF34F8FFEE7B342D9D059680A44E1
:101FE000CEF80420D8F800301B68CEF80030D1E7D6
:101FF00060010020642D0120682D0120782D012032
:10200000640100205C2D01206C2D0120702D012029
:10201000D8B138B5294A50F8043C126813420BD0A5
:1020200050F8081C91B14FF0500383F31188BFF3AF
:102030006F8FBFF34F8FFEE74FF0500383F311888C
:10204000BFF36F8FBFF34F8FFEE7704723EA0203A2
:1020500040F8043C0446FFF7BBF9194954F8040C56
:102060000B68184A03440B60A4F1080300E00A4619
:1020700011688B42FBD854681519AB420ED01C185E
:10208000A1420FD019609A4218BF13600E4A13681C
:1020900001331360BDE83840FFF7A2B92044506017
:1020A0001346ECE7094C2468A142EBD04968084488
:1020B0005860116809681960E5E700BF642D0120C8
:1020C000682D0120782D0120742D01206001002051
:1020D000014B1868704700BF682D012070B5164687
:1020E000026C856B04462AB90668013546B30020A8
:1020F000A56370BD86B9406800F05AFC6368216C26
:10210000A2680B44934205F101056360EFD3236895
:102110006360A563304670BDC06800F049FC226C66
:10212000E3682168524213448B42E36002D2A36801
:102130001A44E260022E08D00135A563002070BD6C
:102140008068FFF7C9FAA660D2E7002DCFD101253C
:102150000020CDE7F8B540B94FF0500383F3118864
:10216000BFF36F8FBFF34F8FFEE7074601FB00F011
:10217000503016460D46FFF78FFE044620B32DBBA8
:1021800003462360C4E90F75FFF74CFDD4E90F1334
:102190002268626001FB03F1CB1A134400200A4459
:1021A000FF21A063C4E9022384F8441004F1100065
:1021B00084F8451000F0B4FB04F1240000F0B0FBFB
:1021C000FFF752FD84F84C602046F8BD00F1500343
:1021D000D7E700BF2DE9F04F85B00192002800F04D
:1021E000AD80002900F09D80022B0BD1C26B012A2B
:1021F00008D04FF0500383F31188BFF36F8FBFF304
:102200004F8FFEE704461E460F46FFF755FA8246FB
:10221000002800F09C804FF0000ADFF8C8924FF0D1
:102220000008FFF7FFFCA26BE36B9A42C0F0F78057
:10223000022E00F0F480019D002D00F04F81BAF1D4
:10224000000F00F0E880FFF70FFDFFF7C1F8FFF780
:10225000E9FC94F84430FF2B08BF84F8448094F8DC
:102260004530FF2B08BF84F84580FFF7FDFC01A92E
:1022700002A8FFF7D3F9002840F0EE80FFF7D2FC68
:10228000A26BE36B9A426FD0FFF7EEFCFFF7CAFC3C
:1022900094F845506DB2002D16DD636AA3B104F1C8
:1022A000240A05E0013DEBB25DB26BB1636A5BB13C
:1022B0005046FFF763F90028F4D0013DFFF7F6F927
:1022C000EBB25DB2002BF1D1FF2384F84530FFF76C
:1022D000CBFCFFF7A7FC94F844506DB2002D16DD3F
:1022E0002369A3B104F1100A05E0013DEBB25DB230
:1022F0006BB123695BB15046FFF740F90028F4D079
:10230000013DFFF7D3F9EBB25DB2002BF1D1FF2312
:1023100084F84430FFF7A8FCFFF762F84FF0010A99
:102320007FE7026C002A3FF45FAF4FF0500383F366
:102330001188BFF36F8FBFF34F8FFEE74FF050034D
:1023400083F31188BFF36F8FBFF34F8FFEE7019BBD
:10235000002B3FF462AF4FF0500383F31188BFF3BB
:102360006F8FBFF34F8FFEE704F1100AFFF77CFC7D
:1023700050460199FFF792F8FFF754FC94F8455046
:102380006DB2002D16DD636AA3B104F1240B05E0E4
:10239000013DEBB25DB26BB1636A5BB15846FFF7CA
:1023A000EDF80028F4D0013DFFF780F9EBB25DB203
:1023B000002BF1D1FF2384F84530FFF755FCFFF7E0
:1023C00031FC94F844506DB2002D04DC11E0013D65
:1023D000EBB25DB26BB123695BB15046FFF7CEF84B
:1023E0000028F4D0013DFFF761F9EBB25DB2002B9C
:1023F000F1D1FF2384F84430FFF736FCFEF7F0FFFD
:1024000000288BD14FF08053C9F80030BFF34F8FB5
:10241000BFF36F8F82E702A8FFF7F4F813E73246A5
:1024200039462046FFF75AFE636A73B938B12D4B1F
:102430004FF080521A60BFF34F8FBFF36F8FFFF7DB
:1024400013FC012005B0BDE8F08F04F12400FFF774
:1024500095F80028F3D0EAE7FFF7E4FB94F845503D
:102460006DB2002D12DD636A83B104F1240605E02C
:10247000013DEBB25DB24BB1636A3BB13046FFF751
:102480007DF80028F4D0FFF711F9F1E7FF2384F875
:102490004530FFF7E9FBFFF7C5FB94F844506DB2F8
:1024A000002D12DD236983B104F1100605E0013D22
:1024B000EBB25DB24BB123693BB13046FFF75EF83A
:1024C0000028F4D0FFF7F2F8F1E7FF2384F8443056
:1024D000FFF7CAFBFEF784FF0020B3E7FFF7C4FB5A
:1024E0002846AFE704ED00E02DE9F04784B0019203
:1024F000002800F01381002900F0A98004460E4650
:10250000FFF7DAF8002800F09580FFF78BFBA56B4A
:10251000002D78D1019B002B00F0FA8002A8FFF774
:1025200071F8DFF8D492A84604F12407FFF79CFB6A
:10253000FEF74EFFFFF776FB94F84430FF2B08BF01
:1025400084F8448094F84530FF2B08BF84F8458018
:10255000FFF78AFB01A902A8FFF760F8002840F006
:102560008380FFF75FFBA36B002B00F0E080FFF799
:102570007BFBFFF757FB94F845506DB2002D04DC50
:1025800011E0013DEBB25DB26BB1636A5BB13846FD
:10259000FEF7F4FF0028F4D0013DFFF787F8EBB217
:1025A0005DB2002BF1D1FF2384F84530FFF75CFBCF
:1025B000FFF738FB94F844506DB2002D16DD236907
:1025C000A3B104F1100A05E0013DEBB25DB26BB1BD
:1025D00023695BB15046FEF7D1FF0028F4D0013DDE
:1025E000FFF764F8EBB25DB2002BF1D1FF2384F862
:1025F0004430FFF739FBFEF7F3FEFFF713FBA56B43
:10260000002D00F08180226C52B1D4E902311144D6
:102610009942E16024BF2168E160304600F0C8F9CA
:10262000013DA5632369002B40F0D680FFF71CFB1A
:10263000012070E0019B002B3FF467AF4FF0500387
:1026400083F31188BFF36F8FBFF34F8FFEE7036CE7
:10265000002B3FF453AF4FF0500383F31188BFF3C7
:102660006F8FBFF34F8FFEE7FFF7DCFA94F845500A
:102670006DB2002D04DC11E0013DEBB25DB26BB137
:10268000636A5BB13846FEF779FF0028F4D0013D5C
:10269000FFF70CF8EBB25DB2002BF1D1FF2384F809
:1026A0004530FFF7E1FAFFF7BDFA94F844506DB2F8
:1026B000002D16DD2369A3B104F1100A05E0013DE8
:1026C000EBB25DB26BB123695BB15046FEF756FFCA
:1026D0000028F4D0013DFEF7E9FFEBB25DB2002B1C
:1026E000F1D1FF2384F84430FFF7BEFAFEF778FEFD
:1026F000FFF798FAA36B5BB1FFF7B6FAFFF792FA10
:10270000A56B002D7FF47FAF019B002B7FF40EAFF4
:10271000FFF7AAFA002004B0BDE8F0874FF050039D
:1027200083F31188BFF36F8FBFF34F8FFEE7FFF77F
:102730009BFA01993846FEF7B1FEFFF773FA94F859
:1027400045506DB2002D04DC11E0013DEBB25DB2ED
:102750006BB1636A5BB13846FEF710FF0028F4D016
:10276000013DFEF7A3FFEBB25DB2002BF1D1FF23D9
:1027700084F84530FFF778FAFFF754FA94F844509C
:102780006DB2002D16DD2369A3B104F1100A05E036
:10279000013DEBB25DB26BB123695BB15046FEF710
:1027A000EDFE0028F4D0013DFEF780FFEBB25DB2F4
:1027B000002BF1D1FF2384F84430FFF755FAFEF7E0
:1027C0000FFE00289AD14FF08053C9F80030BFF3B4
:1027D0004F8FBFF36F8F91E704F11000FEF7CEFE2D
:1027E00000283FF423AF044B4FF080521A60BFF330
:1027F0004F8FBFF36F8F19E704ED00E0134B1A689A
:102800007AB19A68B2B11A69B2B19A69B2B11A6A68
:10281000B2B19A6AB2B11A6B12B19A6BA2B1704797
:10282000062210B403EBC20443F8321060605DF876
:10283000044B70470122F4E70222F2E70322F0E79B
:102840000422EEE70522ECE70722EAE7842D0120C7
:1028500070B504460D461646FFF7E4F994F8443087
:10286000FF2B04BF002384F8443094F84530FF2B3D
:1028700004BF002384F84530FFF7F6F9A36B002B63
:1028800047D0FFF7CFF994F845506DB2002D16DD13
:10289000636AA3B104F1240605E0013DEBB25DB229
:1028A0006BB1636A5BB13046FEF768FE0028F4D076
:1028B000013DFEF7FBFEEBB25DB2002BF1D1FF2331
:1028C00084F84530FFF7D0F9FFF7ACF994F844509D
:1028D0006DB2002D16DD2369A3B104F1100605E0E9
:1028E000013DEBB25DB26BB123695BB13046FEF7DF
:1028F00045FE0028F4D0013DFEF7D8FEEBB25DB2F4
:10290000002BF1D1FF2384F84430BDE87040FFF77D
:10291000ABB93246294604F12400FEF70FFEB0E7BA
:1029200000F108034FF0FF31002281600260436034
:10293000C0E90333704700BF00230361704700BF45
:1029400043684B609A688A605160996008610368C7
:1029500001330360704700BF30B40D686B1C11D0A9
:1029600000F1080200E01A4653681C68AC42FAD92C
:102970004B6099608A6051600861036801330360AD
:1029800030BC704702695368F2E700BFD0E901121A
:1029900003698A60416851605A68824204BF826854
:1029A0005A60002202611A68013A1A60186870477A
:1029B0000A44914200F1FF3300D1704710B511F87D
:1029C000014B03F8014F9142F9D110BD0244034677
:1029D000934200D1704703F8011BF9E75461736B10
:1029E000410000005461736B420000005461736B3E
:1029F000430000005461736B4400000025640A0D1D
:102A000000000000546D725100000000546D7220EF
:042A10005376630096
:102A14000024F40000000000010203040102030486
:082A240006070809AAAAAAAAE4
:040000050800019559
:00000001FF
